:10000000178100001301F10F178500001305850209
:1000100097850000938505FF170600001306460725
:10002000630CB5028326060023A0D5009385450006
:10003000130646006FF0DFFE17850000130585FFED
:1000400097850000938505FF6308B50023A0050090
:10005000938545006FF05FFF6F004000B78600009A
:10006000938606001386F60237C700008347170001
:1000700093F7F70FE39C07FE83C7060093861600ED
:0C0080002300F700E394C6FE6F000000B0
:10008C0068656C6C6F20776F726C642066726F6D34
:10009C002052495343562070726F636573736F72AD
:1000AC002062792053796C7661696E20210D0A00EB
:00000001FF
